{
  "_format": "hh-sol-artifact-1",
  "contractName": "BookStore",
  "sourceName": "contracts/BookStore.sol",
  "abi": [
    {
      "inputs": [
        {
          "components": [
            {
              "internalType": "string",
              "name": "title",
              "type": "string"
            },
            {
              "internalType": "uint16",
              "name": "year",
              "type": "uint16"
            }
          ],
          "internalType": "struct BookStore.Book",
          "name": "book",
          "type": "tuple"
        }
      ],
      "name": "addBook",
      "outputs": [
        {
          "components": [
            {
              "internalType": "string",
              "name": "title",
              "type": "string"
            },
            {
              "internalType": "uint16",
              "name": "year",
              "type": "uint16"
            }
          ],
          "internalType": "struct BookStore.Book",
          "name": "",
          "type": "tuple"
        }
      ],
      "stateMutability": "nonpayable",
      "type": "function"
    },
    {
      "inputs": [],
      "name": "getBooks",
      "outputs": [
        {
          "components": [
            {
              "internalType": "string",
              "name": "title",
              "type": "string"
            },
            {
              "internalType": "uint16",
              "name": "year",
              "type": "uint16"
            }
          ],
          "internalType": "struct BookStore.Book[]",
          "name": "",
          "type": "tuple[]"
        }
      ],
      "stateMutability": "view",
      "type": "function"
    }
  ],
  "bytecode": "0x608060405234801561001057600080fd5b506106e6806100206000396000f3fe608060405234801561001057600080fd5b50600436106100365760003560e01c80639f3497891461003b578063b19a463514610059575b600080fd5b610043610089565b604051610050919061053c565b60405180910390f35b610073600480360381019061006e91906103b0565b6101aa565b604051610080919061055e565b60405180910390f35b60606001805480602002602001604051908101604052809291908181526020016000905b828210156101a15783829060005260206000209060020201604051806040016040529081600082018054600181600116156101000203166002900480601f0160208091040260200160405190810160405280929190818152602001828054600181600116156101000203166002900480156101695780601f1061013e57610100808354040283529160200191610169565b820191906000526020600020905b81548152906001019060200180831161014c57829003601f168201915b505050505081526020016001820160009054906101000a900461ffff1661ffff1661ffff1681525050815260200190600101906100ad565b50505050905090565b6101b2610228565b600182908060018154018082558091505060019003906000526020600020906002020160009091909190915060008201518160000190805190602001906101fa929190610246565b5060208201518160010160006101000a81548161ffff021916908361ffff1602179055505050819050919050565b604051806040016040528060608152602001600061ffff1681525090565b828054600181600116156101000203166002900490600052602060002090601f016020900481019282601f1061028757805160ff19168380011785556102b5565b828001600101855582156102b5579182015b828111156102b4578251825591602001919060010190610299565b5b5090506102c291906102c6565b5090565b5b808211156102df5760008160009055506001016102c7565b5090565b600082601f8301126102f457600080fd5b8135610307610302826105b1565b610580565b9150808252602083016020830185838301111561032357600080fd5b61032e838284610644565b50505092915050565b60006040828403121561034957600080fd5b6103536040610580565b9050600082013567ffffffffffffffff81111561036f57600080fd5b61037b848285016102e3565b600083015250602061038f8482850161039b565b60208301525092915050565b6000813590506103aa81610699565b92915050565b6000602082840312156103c257600080fd5b600082013567ffffffffffffffff8111156103dc57600080fd5b6103e884828501610337565b91505092915050565b60006103fd83836104b3565b905092915050565b6000610410826105f1565b61041a8185610614565b93508360208202850161042c856105e1565b8060005b85811015610468578484038952815161044985826103f1565b945061045483610607565b925060208a01995050600181019050610430565b50829750879550505050505092915050565b6000610485826105fc565b61048f8185610625565b935061049f818560208601610653565b6104a881610688565b840191505092915050565b600060408301600083015184820360008601526104d0828261047a565b91505060208301516104e5602086018261052d565b508091505092915050565b6000604083016000830151848203600086015261050d828261047a565b9150506020830151610522602086018261052d565b508091505092915050565b61053681610636565b82525050565b600060208201905081810360008301526105568184610405565b905092915050565b6000602082019050818103600083015261057881846104f0565b905092915050565b6000604051905081810181811067ffffffffffffffff821117156105a7576105a6610686565b5b8060405250919050565b600067ffffffffffffffff8211156105cc576105cb610686565b5b601f19601f8301169050602081019050919050565b6000819050602082019050919050565b600081519050919050565b600081519050919050565b6000602082019050919050565b600082825260208201905092915050565b600082825260208201905092915050565b600061ffff82169050919050565b82818337600083830152505050565b60005b83811015610671578082015181840152602081019050610656565b83811115610680576000848401525b50505050565bfe5b6000601f19601f8301169050919050565b6106a281610636565b81146106ad57600080fd5b5056fea2646970667358221220ab331a83130fa6336a80eb9b25d792dfad753e930cbee9a2cddda07343cec76364736f6c63430007030033",
  "linkReferences": {},
  "deployedLinkReferences": {}
}